:020000040800F2
:1000000050140020D5000008C1490008E548000848
:1000100000000000000000000000000000000000E0
:10002000000000000000000000000000934F0008E6
:100030000000000000000000114B000815690008D6
:10004000E7000008E7000008CB4C0008E7000008C4
:10005000E7000008D1170008E1170008F1170008B1
:10006000E7000008E7000008E7000008F5130008B3
:10007000E7000008E7000008E7000008E7000008C4
:10008000E7000008E7000008E700000800000000A3
:10009000FD690008E7000008E7000008E700000825
:1000A000E7000008E7000008E70000087573000893
:1000B000E7000008654C000800000000E7000008A9
:1000C0000348854600F0F8FC00480047F58F00081B
:1000D000501400200448804704480047FEE7FEE72C
:1000E000FEE7FEE7FEE7FEE7A9690008C100000899
:1000F00030B50B46014600202022012409E00D46C0
:10010000D5409D4205D31D469540491B2546954047
:1001100040191546521E002DF1DC30BDF0B51FB45C
:100120000646002082B005464024019100901BE065
:10013000019922460F46304600F080FB049A059B49
:10014000801A994110D310461946224600F066FBEA
:10015000361A8F410197224601200021009F00F0AE
:100160005DFB38184D4100902046641E0028DFDCFE
:10017000019B00982946324607B0F0BDF0B51FB488
:1001800086B000200090019002900698069980B2F7
:1001900004900798090C02040014114307900027EB
:1001A000089D099806913E463C4603900398A9B2E3
:1001B0000204000C039004982D0C154348430021C1
:1001C000224600F02BFBC719714110340E46402C1B
:1001D000ECDB3846029A00F021FB009A019B801864
:1001E0000090594102980191103002904028CCDBD8
:1001F00000980BB0F0BD03460B439B0703D009E00A
:1002000008C9121F08C0042AFAD203E00B78037051
:10021000401C491C521EF9D27047D2B201E0027054
:10022000401C491EFBD270470022F6E710B513466A
:100230000A4604461946FFF7F0FF204610BD421C4F
:100240000178401C0029FBD1801A704710B50022AC
:1002500000E0521C835C8C5CA34201D1002BF8D1DE
:10026000D8B2E1B2401A10BD30B5054600200346B1
:1002700000E05B1C934205D2EC5CC85C201A01D103
:10028000002CF6D130BD0321001D401E0378120260
:100290001A43491EF9D51046704700000FB400B547
:1002A0008DB009900B9010A900200091C0430A90D6
:1002B00000200C9006480690064807906A4609A858
:1002C0000F9900F0F5FA0DB008BC04B01847000013
:1002D000D1080008F1080008FFB50027FF4383B0EC
:1002E00000205C6801909E681D46A9697F1C0498E7
:1002F00088470090296A88470028F6D10098401C5A
:100300000CD0032040028443002E19DD600614D572
:1003100000982B2809D02D280FD103E00020C043DE
:1003200007B0F0BD012080020443A9697F1C049836
:100330008847761E0090002E02DD0098302803D0FA
:100340000598002825D035E0012040020443A96922
:10035000761E7F1C049888470090002E03DD7828C5
:1003600005D0582803D00598002810D022E0059821
:10037000002801D010281DD1012040028443A96922
:10038000761E7F1C049888470090102002E0082009
:1003900000E00A2005900DE0012149020C43059A76
:1003A0000199761E514308180190A9697F1C049891
:1003B00088470090002E05DD0599009800F062FA4C
:1003C0000028E9DAE96904988847A00502D40120E9
:1003D000C043A5E7E00722D1600611D5600501986A
:1003E00000D5404229680A1D2A600968220501D506
:1003F000087014E0220701D5088010E008600EE0C4
:100400002868011D29600068210502D50199017045
:1004100005E02107019901D5018000E0016038461F
:100420007EE70000F0B507460846584087B0C00F89
:10043000049048000E46590040084908BC1A8841FB
:1004400005D2384631461E4617460B46024658002E
:10045000400810434CD0300D039040055900400D2A
:10046000490D0590401A0290402872DA18030121C4
:10047000000B09050843019004980092002805D05C
:100480000199524200208841009201900298402137
:100490000A1A0199009800F0C1F905460C466B460E
:1004A00007CB00F0DCF9C0197141039A0E0D00234F
:1004B000D71756401A467A40164344D0049A002A69
:1004C0002DD0029A012A039A15DC1205C01A914117
:1004D00001263605001C7141D20F059ED2070093FC
:1004E000019202962A46234600F021FA07B0F0BD99
:1004F00038463146FAE71605224A0F46B218C01AA6
:10050000B74101210905001C4F4100187F411146E8
:1005100018187941E20F10436D19644113E0E207A6
:100520006D0815436408C2071443039A0126120597
:10053000C01A91413605001C7141CE074008304376
:100540004908C01851412A46234600F0E3F9CDE797
:10055000FFE7049801224000C117121A00238B41C3
:1005600004983146C417381AA141EEE730B401248B
:10057000E407634030BC55E730B40124E407614030
:1005800030BC4FE70000E0FFF0B51FB488B00B9916
:100590000998002448400999C00F49004908099169
:1005A000C0070B990090490049080B9109990898D8
:1005B000A64608431CD00B990A98084318D00998FE
:1005C00001244000420D4800410D09982405000314
:1005D000000B204309900B980003000B20430B9065
:1005E00050181C494018002201901446104605E09E
:1005F000002001460DB0F0BD032801DA034600E0FB
:1006000003239C46C11A0AAE0AE05F0008ADED5B09
:100610004F00F75B7D430027AA187C41491C5B1EF5
:100620006145F2DD410004AB5A522104120C0A4329
:10063000240C401C0828DFDB0198029000997046CA
:1006400001910090059B049A0799069800F06FF9B4
:10065000D0E700000DFCFFFFF0B50C465C4085B014
:10066000E40FE40703944C00002664085900944604
:10067000490802460296224321D062460A431ED010
:100680006200570D4A000E032303550D0124024654
:100690002C492405781B1B0B360B4018234326439B
:1006A000614600901C46501AB44103D30098401C88
:1006B000009002E0921800985B41002803DA0020C5
:1006C000014605B0F0BD0020012109050746864618
:1006D00011E064461D46141BB54106D36546521B06
:1006E000B341744607430C43A646CD07400849086A
:1006F000284392185B4105460D43EAD11046184342
:1007000013D06046194650407140084306D06046F9
:10071000101AB34106D20122002306E00022012371
:10072000DB0702E00122D243531000987446010512
:10073000381C6141029C039D0019694100F0EAF8F0
:10074000BFE70000FD03000070B54B005B080343EA
:100750000BD04B005C0D002633466542B341D417E5
:10076000AD1AA34102DB0020014670BD120530180E
:10077000514170BD0EB5C217C10F5040CA07401895
:100780000021054B0293019200910A460B4600F0AE
:10079000CEF803B000BD0000330400000EB50549DB
:1007A0000291002100910A460B46019100F0BFF82A
:1007B00003B000BD330400004A0009030123090B04
:1007C0001B051943094B10B5520D9A4201DA00205E
:1007D00010BD064B34339A4203DC9A1A00F02EF80F
:1007E00010BD03495118884010BD0000FF030000F0
:1007F000CDFBFFFF10B5002904DB0124E4074042D4
:100800008C412146002B04DB1C460123DB075242AE
:10081000A341994200D1904210BD000010B5202A9A
:1008200004DB0146203A9140002010BD9140202376
:100830009C1A0346E3401943904010BD10B5202A8E
:1008400004DB0846203AD040002110BD0B46D340BF
:10085000D0402024A21A91400843194610BD10B57B
:10086000202A06DBCB170846203A1041C1170B435C
:1008700006E00B461341D0402024A21A91400843C1
:10088000194610BD3A2800D23038202302469A4338
:10089000412A01D310463738884201D30020C04393
:1008A00070470000026813785118016018467047BD
:1008B00010B5D160044951610449116200211161F0
:1008C000114600F013F910BDA5080008DD0A000864
:1008D0004268002A08D001680B78491C002B03D01D
:1008E000521E06C0184670470121C160881E70471D
:1008F0004268002A0BD0C3680168002B07D18368C7
:100900008B4204D0491E521C06C0002070470020B4
:10091000C043704710B5002B08DA0024401C614129
:1009200092185B411A4301D14008400010BDF0B558
:100930001FB482B005460C0003D0084606F034FD13
:1009400002E006F031FD20300246009021462846A4
:10095000FFF764FF049B059A04460F4618431143B2
:10096000084314D0184610431BD0009840210A1A9F
:1009700018460599FFF762FF05460E46009A05994D
:100980000498FFF74BFF084305D0012004E0204600
:10099000394607B0F0BD0020C11705430E432C4374
:1009A000374300990E986305401A7905E40A00223E
:1009B0000C43FD0A0A3002D500200146E9E7010593
:1009C000101969410C9C0D9D00196941FFF7A2FFA8
:1009D000DFE70000F8B50546480040080C4628430C
:1009E00004D06000184A400D904201DD2846F8BD51
:1009F00015493539884210DC88420BDB290D20036C
:100A000008432903014305D0E00F1049C0074118EE
:100A10000020F8BD00200146F8BD161A4020821BB8
:100A200028462146FFF7FAFE074600912846214650
:100A30003246FFF703FF3A46009BFFF76BFF324653
:100A4000FFF7ECFEF8BD0000330400000000F03FAB
:100A50004A0009030123090B1B0519430A4B10B572
:100A6000520D9A4202DA0020014610BD064B343383
:100A70009A4203DC9A1AFFF7E1FE10BD034BD2182D
:100A8000FFF7CCFE10BD0000FF030000CDFBFFFF11
:100A900010B5002904DB0124E40740428C412146C3
:100AA000002B04DB1C460123DB075242A3418B428F
:100AB00000D1824210BD0000064C0125064E05E023
:100AC000E36807CC2B430C3C98471034B442F7D36F
:100AD000FFF7FAFA14AB000834AB000810B50F2189
:100AE000C0B2490200F09EF910BD0000F3B58DB010
:100AF00000200A9001200B90002608460C300C467E
:100B000009906269012109989047051E2ED0252D74
:100B10002DD0216A8847002818D0626901210998E0
:100B20009047216A88470028F7D1411E62690998D9
:100B3000904700E0761CA1690D988847216A884794
:100B40000028F7D1E1690D988847DAE7A1690D9887
:100B500088470746A84201D1761CD2E7E1690D9883
:100B600088477F1C02D10A98002877D049E10027E6
:100B700062693D463946099890472A280CD1626936
:100B8000012109989047012506E00A214F433F18AB
:100B9000303FEBD41020054362690121099890474A
:100BA000014630390A2903D29B498F42DEDCECE74B
:100BB000E90600D4994F6C280AD04C2810D0682838
:100BC00024D06A282ED074280CD07A280AD00DE0C0
:100BD00062690121099890476C2823D004211CE008
:100BE000202005436269012109989047A76065604C
:100BF00065284FD026DC582839D01ADC452849D042
:100C000012DC252834D04128B0D143E062690121AB
:100C100009989047682802D008210D43E6E7012093
:100C2000C002DEE70220DCE7462833D047282CD17B
:100C300030E05B2870D061282CD063286CD0642809
:100C400023D161E06F284FD009DC662822D06728C5
:100C500020D0692826D06E2817D12EE0CDE070284C
:100C60004DD073286FD075284ED078280DD154E020
:100C7000A1690D9888470546252800D16CE7E169F0
:100C80000D9888476D1C00D16DE7BAE00A224CE050
:100C90000A2252E0012023466A46C0430D99C0460D
:100CA000C046A3E02846402108436060A8072346C9
:100CB00001D5002239E000223FE0E80700D020E71C
:100CC0002068011D21600068290501D5067018E71C
:100CD000290701D5068014E7A90703D5F117066097
:100CE00041600EE706600CE728464021084360603B
:100CF000A807234601D5082217E008221DE048492D
:100D000028460840606016E028464021084360609D
:100D1000A8072346BCD5B9E715E02846402108437B
:100D20006060A80707D5234610220120C0430D9913
:100D3000C046C0465AE0234610220120C0430D9908
:100D4000FFF7CAFA52E000210C910B46009163288C
:100D500002D05B2807D043E0E80601D40120A06060
:100D6000012000903CE062690121099890475E28CB
:100D700005D101200C9001466269099890472169CC
:100D8000002906D10B4601AA8F00491CD35108291E
:100D9000FADB002835D0216900290ED1C117C90E10
:100DA00009184A11930001AA9A1849094901411AE0
:100DB0000120136888400343136062690121099888
:100DC00090475D28E5D10C98002808D0002001ABA1
:100DD00081005A58401CD2435A500828F8DB01AB16
:100DE00001202246C0430D99C046C04600280ADAB9
:100DF000401C06D10B98002803D00020C0430FB040
:100E0000F0BD0A98FBE7E90702D10A99491C0A914B
:100E1000361800200B9074E6CCCCCC0CFFFFFF7F83
:100E2000F1F7FFFF7F2801D9002207E0054B4208B8
:100E30009A5CC00700D112091207120F01209040DE
:100E400008407047B8A1000801780448024A436886
:100E5000D1540121017070471D0E00209800002020
:100E600010B5034808F04AFF02490020087010BD81
:100E7000490E00089800002010B512480178012999
:100E80000ED100210170104B42689C5C012C08D0EF
:100E90000D2C09D00A2C07D07F2A0DD0521C42609D
:100EA00010BD4160082009E0002AF9D09954416042
:100EB000054808F059FA10BD4160062007F080FF90
:100EC00010BD0000980000201D0E002070B50D4BD5
:100ED00000290ED104780C4D63400024DE0702D0B7
:100EE0005B086B4000E05B08641CE4B2082CF5D39F
:100EF000401C0C46491E89B2002CEBD11370180A15
:100F0000507070BDFFFF000001A00000FFB5044657
:100F100089B0002003900890069021891646002988
:100F200015D00190626904922069002A04D000293A
:100F30000FD00A4692B20392002900D00E46E16813
:100F4000884215D3039A61688018081A11E00220BC
:100F5000E7E722686568135C471CAF4202D3451B74
:100F60006D1C00E03D46525D1202921C9A18E1E7AA
:100F700000200199751807950C994D43854201D2BF
:100F8000002102E00799FFF7B3F8C8B2019988423F
:100F900008D9217FCA0700D106980690880701D595
:100FA000019800E00698002E6AD0049949190818A3
:100FB0006168884264D8002798E00398081861683F
:100FC000884200D3401A20612189002911D121686B
:100FD0000E546168401C814200D8401A2268310AD0
:100FE00011546168401C814200D8401A6169891C13
:100FF000616161680D1AB54200D33546B5420DD026
:10100000B54202D2217F002908D0002D6AD0217F6D
:10101000CA0730D02189002913D019E039460A9A2D
:1010200071438918226810182A46FFF7E4F86069AE
:101030004019606107990895002089B2751B0391DA
:1010400040E02368FF22811E5A542168401E0A5442
:1010500060694019606100200890218935460029A7
:101060002AD1206805702168280A48706169022029
:10107000891C616120E089071ED52189002902D0E1
:1010800000200DB0F0BD2168821E8D542268290A0F
:10109000431ED15439460A9A7143891822681018A0
:1010A0002A46FFF7A8F86069401960610895A069B1
:1010B000751B401CA061D4E70199691889B203919E
:1010C00000212161002D0DD0089A0A993B4689180C
:1010D00022687343101859182A46FFF78CF8606984
:1010E00040196061A069401C7F1CA0610C982169B7
:1010F000874200D261E7019808186168884200D3EE
:10110000401A21684018BCE710B5029C016000211C
:10111000C160016141614260816103810477A00780
:1011200003D5002B01D0481E10BD002010BD0000CB
:10113000F0B503890022002B09D0002300240C8085
:101140004469002C58D00289002A02D00DE0022305
:10115000F4E7C26804684668A55C571CB74200D330
:10116000921B521CA25C1202AA1894B20C80027F3D
:10117000D50729D0920727D4204A944202D1028968
:10118000002A0AD0C468026994421DD90289002A43
:101190001AD045682C1B944216D24468C26845692F
:1011A000A21AAA1A42610022C2600289002A0AD148
:1011B0000268012C157802D86442641C00E0012406
:1011C000125D1202AA180A80C5684468EA18A24291
:1011D00000D3121B06680F8892194669FF18F61B88
:1011E000466106D009886918C918A14200D3091BB5
:1011F000C1608169491E81611046F0BDFFFF00009A
:10120000F0B503890022002B0AD0002700230B80B1
:101210004369002B42D00389C268002B02D00DE045
:101220000227F3E705684468531CAE5CA3421346EB
:1012300000D31B1B5B1CEB5C1B02F3189CB20C80E5
:10124000037FDD0723D09B0721D4154B9C4202D19D
:101250000389002B0AD0C46803699C4217D903890B
:10126000002B14D045682C1B9C4210D200221B047A
:101270001B0C0BD143680468012B02D85B425B1C3A
:1012800000E00123E35C24781B021B190B80D119B9
:101290004268914200D3891A00680A181046F0BDCE
:1012A000FFFF000010B51AA005F03EFD0028FAD19E
:1012B0001FA005F039FD0028FAD1234C2068002832
:1012C00005D02068122813D000F0ACF810BD07F04C
:1012D000A1FD01221D49204600F048FA1CA005F09E
:1012E00023FD0028FAD1194901201839087010BDD2
:1012F00007F090FD01221549204600F037FABFF3B0
:101300004F8F23492148C860BFF34F8F00BFFDE7CF
:101310000A0D44524147494E4F2052533438352D1F
:101320004C4E2050494E47504F4E470A0D0000008A
:10133000496D6167652056657273696F6E3A2076F4
:10134000312E300A0D00000000000808B80000200F
:10135000506C6561736520736574207468652070D6
:101360006172616D6574657273206F72207265734E
:1013700065742044657669636520746F20617070C0
:101380006C79206368616E67650A0D000400FA05D8
:1013900000ED00E030B587B014216846FEF744FF49
:1013A000032001900020029003204003104C009085
:1013B000E06A01210843E062E06A084005900520E8
:1013C0006946000700F070FFE06A40084000E062F4
:1013D000606B0125AD052843606300F0A7FC00F0B9
:1013E000B5FC00F0ABFC606BA843606307B030BD98
:1013F0000010024010B508F023FC10BD10B50468C1
:1014000063608368102B036803D099600068C26032
:1014100010BD9A600068C16010BD10B503F024F8DB
:1014200010BD000070B590B0474D00246E462846B0
:1014300000F0BCFAA100641C2D1D7050102CF6DBCE
:101440004248009941620199C16102990162039980
:101450000A0E014630310A70039A120C4A70039A40
:10146000120A8A70039ACA70049A120E0A71049AB8
:10147000120C4A71049A120A8A71049ACA71059967
:10148000090E00D0012181700599090C0906090E89
:1014900000D00121C1700599090A81710599C171B6
:1014A0000699090E01720699090C81720699090ABA
:1014B0004172069901710799C1620899090CC172BC
:1014C0000899090A0173089981740999090E4174F0
:1014D0000999090C017409990A0A1D490A70099AA7
:1014E0004A700A9A120E8A700A9A120CCA700A9AE4
:1014F000120A0A710A9A4A710B9A120E8A710B9A91
:10150000120CCA710B9A120A0A720B9A4A720C9A3E
:10151000120E8A720C9A120CCA720C9A120A0A7370
:101520000C9A4A730D9981620E99090EC1730E9936
:10153000090C81730E99090A41730E9941710F9933
:10154000818210B070BD000060000808A00000207B
:10155000A00E0020F8B5564C564D6078616A8200A6
:10156000A950401CC0B28200E169A950401CC0B221
:101570008200401CC6B2216A2046A9503030FEF7D6
:1015800082FE274600BA3037000AF9780002084385
:10159000B1006850761CF6B2381DFEF774FE00BA32
:1015A000000AF97900020843B1006850A178E27896
:1015B000090612041143A279761C12021143F0B2FB
:1015C000E2792E4611438200A950217AA27A0906B7
:1015D00012041143627A401C120211432279C0B2F4
:1015E00011438200A950401CC0B28200E16AA95098
:1015F000E17A227B090412021143A27C401CC0B292
:1016000011438200A950103E627C7178120611438A
:10161000227C337812041B02401C1A43C0B21143CF
:101620008200401CC7B2A950B01CFEF72CFE00BAC5
:10163000000A717900020843B90068507F1CFFB2AC
:10164000B01DFEF720FE00BA000A717A00020843BE
:10165000B90068507F1CFFB2A81FFEF714FE00BA45
:10166000000A717B00020843B90068507F1CF8B281
:101670008200A16AA950E17BA27B090612041143F2
:10168000627B401C120211436279C0B21143820096
:10169000A950401CC0B28200A18AA950401CC2B20D
:1016A00062702946044800F061F800206070F8BDBF
:1016B000A0000020B00E00206000080870B50D4D9D
:1016C000EFF3108472B600F0CDFD0A4E783628464E
:1016D00000F080FD002804D084F3108806A005F0F7
:1016E00023FB2D1DB542F2D300F088FD84F3108852
:1016F00070BD0000600008086572726F7220696E2C
:1017000020454550524F4D204572617365206F70E2
:1017100065726174696F6E0A0D00000070B5054650
:10172000EFF3108472B600F09DFD284600F052FDE4
:10173000002804D084F3108803A005F0F5FA00F027
:101740005DFD84F3108870BD6572726F7220696EE2
:1017500020454550524F4D204572617365206F7092
:1017600065726174696F6E0A0D000000F7B5174667
:1017700000260546EFF3108472B600F073FD0DE00D
:101780000198B10042582946022000F041FD00288E
:101790000BD084F3108806A005F0C6FABE42EFDB3A
:1017A00000F02CFD84F31088FEBD2D1D761CF5E79E
:1017B0006572726F7220696E20454550524F4D2000
:1017C0005772697465206572726F720D00000000B7
:1017D00010B5012000F05CFD022000F059FD10BDA5
:1017E00010B5042000F054FD082000F051FD10BD9C
:1017F00070B5102000F04CFD202000F049FD402085
:1018000000F046FD802000F043FDFF20013000F095
:101810003FFD0120400200F03BFD0120800200F06E
:1018200037FD0120C00200F033FD0F4C6069012537
:10183000C0040E4E002804DA3570A014606100F078
:1018400023FD0120400300F023FD6069400405D51D
:10185000012035708003606100F016FD0120C00397
:1018600000F016FD70BD0000000401408200002061
:1018700000B50B4887B0C26A02210A43C262C06A3F
:101880000840059001200190002002900320039061
:10189000202000906946034800F006FD07B000BD17
:1018A0000010024000040050FEE7000010B5214A7D
:1018B00000219069C305204804D5416902231943DA
:1018C0004161911593699B0505D543690124234323
:1018D00043616302194393695B0505D54369082495
:1018E00023434361E301194393691B0505D543690C
:1018F0000424234343616302194393699B0405D580
:1019000043691024234343616302194393699B0392
:1019100004D5446920231C43446119439369DB03C4
:1019200005D54369402423434361A00201439161EB
:1019300010BD000000200240D402002070B5054612
:1019400000F07EFD0646184C0AE0681C08D0002D09
:1019500004D000F075FD801BA84201D9032070BDA2
:10196000A069C007F1D1A069800701D50220A0615C
:10197000A069C00511D4A06980050ED4A0694005F6
:101980000BD4A069000508D4A069800405D4A0691F
:10199000800302D4A069C00303D5FFF787FF0120AD
:1019A00070BD002070BD00000020024001680248A8
:1019B00001600068704700002000002000B587B07B
:1019C00014216846FEF730FC0D48C26A02210A4322
:1019D000C262C06A6A46084005900A480190002029
:1019E000C90202900091084802F0CCFC00220221BA
:1019F000072000F09FFD072000F092FD07B000BD1A
:101A000000100240000021100004005010B586B004
:101A1000044614216846FEF707FC1948C26A0221F1
:101A20000A43C262C06A0840059048030090002142
:101A30001448012C14D0022C14D0032C19D001917D
:101A40000291694600F030FC022C07D800220221E6
:101A5000072000F06FFD072000F062FD06B010BD0A
:101A6000094A00E0094A02910192694600F01CFC13
:101A7000ECE7074A02910192694600F015FCEDE798
:101A8000001002400004005000003110000011104E
:101A90000000211010B5094A0021CB00D45884421F
:101AA00007D89B189B68834203D9C8008018007927
:101AB00010BD491CC9B21529EFD3FEE76C9D000883
:101AC00030B593B038216846FEF7AEFB01250024FF
:101AD000059508200A940090684600F0FDFF002854
:101AE00001D0FFF7E1FE1B491B4812C004601B49EF
:101AF00084604160083801F0AFFF002801D0FFF793
:101B0000D3FE1421144801F0CAFE0C2010900E944C
:101B100000220EA90F9511940F4801F0F7FE00283E
:101B200001D0FFF7C1FE00210B4801F0C3FF0028E0
:101B300001D0FFF7B9FE0A4CA0680228FCD10021B1
:101B4000054801F0DBFF044801F070FF606813B046
:101B500030BD0000000801409C020020FFFF000093
:101B60002400002070B5040006D0A06D2646002594
:101B70004036002802D006E0012070BDE5653575CD
:101B8000204600F0D1F8A06DC00603D42168886813
:101B9000400705D5A06D10210843A0653575EBE71A
:101BA000A06DFF220132904302221043A065886895
:101BB0008207920F5A48012A02D10A68D2072BD114
:101BC000032362689B079A4205D05B429A4202D087
:101BD0005B009A4209D10A69920092080A61216861
:101BE0000A6963681A430A610CE00A699200920864
:101BF0000A6181680F229204914381608168626862
:101C0000114381602168CA6818239A43CA60216819
:101C1000CA68A3681A43CA608168012252069143C8
:101C200081608168228F520611438160206881683B
:101C3000C90004D481680122120711438160206821
:101C4000C168384A1140C1602169E068022923D087
:101C500000210843216A226B4903520011430843C3
:101C6000616B0843A16989030843E169C90308431B
:101C70002168CA681043C860A06A0146FF39C239AA
:101C800005D0E16A08432168CA681043C860606AE9
:101C90000121012802D00BE00421DAE7206A0028A4
:101CA00023D0A06D20221043A065E06D0843E065BD
:101CB000206C012820681FD00169C90703D0016981
:101CC00049084900016120684169C908C9004161AA
:101CD00020684169E26B11434161E565A06D8008B0
:101CE0008000401CA065002070BD2068C2680123F0
:101CF0001B041A43C260DBE70269FF239B009A437F
:101D0000026120680269636CE66C1A43A36C33437A
:101D10001A430261206802690A430261D3E70000A6
:101D2000002701401902FEFF704700000248416889
:101D30004908490041607047005801400248416825
:101D400004229143416070470058014002484168B5
:101D500002229143416070470058014070B5002451
:101D6000024620325179022903D00421C1630124A3
:101D70003CE001680B680E25AB430B6001680B6803
:101D80005B085B000B601A4B0168994201D101218D
:101D900021E0174B1433994201D110211BE0144B61
:101DA0002833994201D1891515E0114B3C339942F2
:101DB00001D189140FE00E4B5033994202D1012119
:101DC000090408E00A4B6433994202D10121090554
:101DD00001E001210906064B083B596001215171C0
:101DE00000211171816B002900D08847204670BD09
:101DF00008000240F8B504469D4801689C4A9C4E84
:101E00009B4F0832206813041C363037904201D1B2
:101E100008221EE0B04201D180221AE0B84202D16D
:101E20000122D20215E0924A4432904202D10122AC
:101E3000D2030EE08E4A5832904201D11A4608E091
:101E40008B4A6C32904202D10122D20501E001227C
:101E5000D20625461140203500293BD001680907EC
:101E600038D5016808229143016081492068083112
:101E7000884201D108201EE0B04201D180201AE042
:101E8000B84202D10120C00215E0794944318842AC
:101E900002D10120C0030EE075495831884201D1BA
:101EA000184608E072496C31884202D10120C00511
:101EB00001E00120C0066E494860E06B0121084343
:101EC000E0630420687100202871616B002901D053
:101ED0002046884766480168654A2068083213151D
:101EE000904201D104221EE0B04201D140221AE00A
:101EF000B84201D11A4616E05D4A4432904202D1FE
:101F0000012292030FE05A4A5832904202D1012234
:101F1000920408E0564A6C32904202D101229205A6
:101F200001E001229206114238D00168490735D5F7
:101F30000168890603D4026804218A4302604C497F
:101F400020680831884201D104201EE0B04201D14E
:101F500040201AE0B84201D1184616E04449443105
:101F6000884202D1012080030FE041495831884264
:101F700002D10120800408E03D496C31884202D141
:101F80000120800501E001208006394948600520D4
:101F90006871216B002901D02046884734480168C8
:101FA000334A206808325315904201D102221EE0C4
:101FB000B04201D120221AE0B84201D11A4616E0FF
:101FC0002B4A4432904202D1012252030FE0284AA8
:101FD0005832904202D10122520408E0244A6C3265
:101FE000904202D10122520501E001225206114223
:101FF0003CD00168890739D50168890603D4016896
:102000000222914301601A4920680831884201D1B7
:1020100002201EE0B04201D120201AE0B84201D1D6
:10202000184616E012494431884202D1012040038B
:102030000FE00F495831884202D10120400408E0E6
:102040000B496C31884202D10120400501E001209A
:10205000400607494860E06BE0630120687100209A
:102060002871E16A002901D020468847F8BD0000A8
:102070000000024070B5002805D00346203359798E
:10208000002902D003E0012070BD00211971022156
:102090005971046822683749C5680A4081684669F1
:1020A000294305693543294385692943C56929437E
:1020B000056A2943114321602F492F4C026878316A
:1020C000A24206D18A6A120912018A628A6A4068AB
:1020D00049E0294C1434A24207D18A6AF024A24371
:1020E0008A628A6A406800013DE0234C2834A2429B
:1020F00008D18A6A0F242402A2438A628A6A40684D
:10210000000230E01C4C3C34A24208D18A6A0F2401
:102110002403A2438A628A6A4068000323E0164CC3
:102120005034A24208D18A6A0F242404A2438A624E
:102130008A6A8088000416E00F4C6434A24208D1F9
:102140008A6A0F242405A2438A628A6A808800056D
:1021500009E08A4209D18A6A0F242406A2438A62CE
:102160008A6A0079000602438A62012058710020C1
:1021700070BD00000FC0FFFF08000240F8B5044624
:1021800020300579012D1ED00125057102264671EA
:1021900020680768AF4307602046FFF72FF92068E3
:1021A0000168314301602068016804221143016025
:1021B00020680168082211430160206801682943F2
:1021C00001600020F8BD0220F8BD01B50098FFF7BE
:1021D00024F908BD70B5074D04462846FFF7AEFB4D
:1021E000002805D10449486120602846FFF7A6FB76
:1021F00070BD000050C30000D402002003484168B5
:10220000012211434160002070470000002002407D
:10221000F8B5124D0746287C14460E46012807D013
:10222000012028740E48FFF789FB002802D00CE03B
:102230000220F8BD00216961022F09D0012F09D0C9
:10224000002F09D00648FFF779FB00212974F8BD5B
:102250003460FAE73480F8E73470F6E7D4020020FF
:1022600050C3000005484168C90705D00449C16052
:102270000449C160002070470120704700200240DF
:10228000EFCDAB890504030210B502F0A5F810BD2F
:1022900010B504494A69024202D04861FFF7F4FFD1
:1022A00010BD000000040140F8B500230124A7E0A0
:1022B00027469F403A4070D04D68022D01D0122D24
:1022C00014D1DD08AD002D1800952D6A5E07AC46CF
:1022D000F50E0F26AE46AE406546B543AC460E69D8
:1022E0007546AE4065462E43009D2E624D68012D19
:1022F00005D0022D03D0112D01D0122D16D18568E5
:102300000326AC465D00AE46AE406546B543AC46DE
:10231000CE687546AE4065462E43866046680D79A8
:10232000BE43ED06ED0F9D403543456006685F00F6
:102330000325BD40AE46AE430D79B446AE07B60F99
:10234000BE4065462E430660C6687546AE438D683E
:10235000BD403543C5604D68ED0050D52B4D6E6BCB
:1023600026436E639E082A4DB6007519AC46AD68CB
:102370009E07360F0F27B740BD4305273F07B842DA
:1023800001D100271AE0234FB84201D1012715E0FF
:10239000214FB84202D1022710E030E01F4FB8426F
:1023A00001D103270AE01E4FB84201D1042705E0FE
:1023B0001C4FB84201D1052700E00627B7402F4344
:1023C0006546AF60184D2E684F689643FF0300D5F1
:1023D00016432E606E684F689643BF0300D51643C0
:1023E0006E60AE684F689643FF0200D51643AE603C
:1023F000EE684F689643BF0200D51643EE605B1C43
:102400000A681546DD4000D052E7F8BD00100240D2
:10241000000001400004005000080050000C005073
:1024200000100050001C00500004014042694A4066
:1024300042617047002A01D0816170478162704714
:1024400001480068704700005000002070B504008B
:102450000FD021681348086021681348086003CC36
:1024600041602068083C21688860FFF7E9FF054665
:1024700008E0012070BDFFF7E3FF401B302801D9C1
:10248000032070BD2068C0680028F4D1206802696C
:10249000E1688A4201D0016101E004490160002045
:1024A00070BD0000CCCC000055550000AAAA000069
:1024B000006802490160002070470000AAAA0000DD
:1024C00002480168491C016070470000500000206C
:1024D00010B506480168022211430160032000F094
:1024E00007F800F007F8002010BD000000200240AF
:1024F0000020704710B50848816B020411438163C6
:1025000000F02CF800F022F804480168082211437A
:10251000016000F013F810BD0010024000200240DE
:10252000C106C90E012088400149086070470000BB
:1025300000E100E010B502F045FA10BD0248016864
:1025400002151143016070470070004002480168A5
:102550004215114301607047007000400248016855
:10256000102291430160704700700040F8B5664941
:10257000074601250020ED03624B634A4031102FCE
:102580006FD011DC012F77D0022F6CD0042F6BD0CD
:10259000082F24D1C9680324240321407BD0BD0225
:1025A0006C10A9427CD0A0E00326584C3604202FA2
:1025B0000BD0402F35D0FF3F012F10D1C9683140DB
:1025C00069D07C04A1426BD096E00B6909690127B0
:1025D00031403F04B94203D1990559E02846F8BD7E
:1025E00001256D04A94203D19907F8D54848F8BDE3
:1025F000B142FCD111688903F9D5116803200005A7
:10260000014001200005091A09D0091A05D08142AC
:1026100001D14048F8BD2046F8BD3F48F8BD3F48CD
:10262000F8BDC9680125AD06294006D0A942F7D1F9
:1026300091688907F4D53A48F8BD11688901FBD53E
:10264000D068D1688002374D000F2D5C0802810FE1
:10265000D068491CC0030AD41068C00605D52046BE
:1026600006E045E008E023E030E0184600E02E48B0
:102670006843FDF73DFDF8BDCC68A407A40F0CD05E
:10268000022C0DD0012C10D0032CF4D1096989053E
:102690000029A3DBF8BD16E002E000F0D1F9F9E76C
:1026A00011684907F6D51846F4E700F0D9F9F1E7C3
:1026B000CC680C26344006D0082CF1D0042CF4D081
:1026C0000C2CE3D0E6E700F0ABF9E3E7CC68032697
:1026D000B6023440F7D00127FF02BC42E0D07A10A6
:1026E0009442E2D0B442D1D0D4E7A142DDD0D1E7C8
:1026F000916B4902E7D4CDE7012212049142D4D074
:10270000C8E700000024F4000010024000093D006A
:102710008890000020A1070040420F0080841E0026
:10272000006CDC02949E000800127A00F8B50446A2
:1027300000785E4D800672D55C4E0027403EB06B3F
:10274000C00004D4B06BA9050843B0630127584802
:102750000168C90511D40168821511430160FFF7B2
:102760006FFE009005E0FFF76BFE0099401A6428A9
:1027700037D84F480068C005F5D5326803210905F0
:1027800060680A400140914208D08103890F032903
:1027900004D13168890301D50120F8BD2A690321DC
:1027A00009040A4022D0084090421FD020788006B9
:1027B0001CD528692A6988430121C9040A432A6172
:1027C0002A698A432A612861C0050FD5FFF738FEC0
:1027D000009008E0FFF734FE0099411A3548814225
:1027E00001D90320F8BD28698005F3D56168880305
:1027F000800F032805D132680005824301400A4357
:10280000326028690322616812041140084328617C
:10281000002F04D0B06B012109078843B0632078F2
:10282000C00705D0E868A168800880000843E86018
:102830002078800705D5E8680C218843E1680843C3
:10284000E8602078400706D5E868032189028843BC
:1028500021690843E8602078000706D5E86803216D
:102860000903884361690843E8602088C00506D5EC
:10287000E868032109048843A1690843E8602078D7
:10288000400606D5E868012189068843216A084385
:10289000E8602078000606D5E868032189048843AB
:1028A000E1690843E8600020F8BD000040100240E4
:1028B0000070004088130000F8B5054653480E46E6
:1028C0000068C007C00FB0420AD2504801684908EA
:1028D0004900314301600068C007C00FB0426FD1AA
:1028E00028784B4C800705D5E068F0218843A9681B
:1028F0000843E0602878C00752D06868022817D0E3
:10290000032818D02168012818D08905002957DA32
:10291000E168890889000143E160FFF791FD69687A
:102920000746022912D003291CD0012926D033E002
:1029300021688903EAE721688901E7E74907E5E7B4
:10294000FFF77EFDC11B3348814223D8E0680007B2
:10295000800F0228F4D123E0FFF772FDC11B2D4840
:10296000814217D8E0680007800F0328F4D117E0F0
:10297000FFF766FDC11B274881420BD8E0680007BE
:10298000800F0128F4D10BE0FFF75AFDC11B21484D
:10299000814201D90320F8BDE0680007800FF3D120
:1029A0001A480168C907C90FB1420BD90168490823
:1029B0004900314301600068C007C00FB04201D038
:1029C0000120F8BD2878400706D5E06807210902F4
:1029D0008843E9680843E0602878000707D5E06885
:1029E0000721C90288432969C9000843E06000F053
:1029F00037F8E168084A0906090F515CC8400749E1
:102A000008600320FFF774FD0020F8BD002002409D
:102A10000010024088130000849E00084C00002033
:102A2000044805490068C968044A4905490F515CD2
:102A3000C84070474C000020001002409D9E0008D6
:102A4000044805490068C968044A8904490F515C73
:102A5000C84070474C000020001002409D9E0008B6
:102A600010B5184AD1680C20084004280BD008285B
:102A700010D00C2810D050680004410F0120C00372
:102A8000491C884010BD1068C00601D50E4810BD15
:102A90000E4810BD0E4810BD88020E4B000F185C8A
:102AA0000902D368890F491CDB0301D5084A05E0F8
:102AB0001268D20601D5044A00E0044A5043FDF7EB
:102AC00017FB10BD0010024000093D000024F40077
:102AD00000127A00949E0008F8B504460078FF4D75
:102AE000C0074CD0E8680007800F022807D0E868CC
:102AF0000007800F032809D1E868C00306D52868BD
:102B000080033CD56068002875D038E001206268F9
:102B10000004824203D129680143296011E00523A2
:102B200001211B0489049A422A6802D10A432A60BF
:102B3000F1E782432A602A680240009228688843AD
:102B40002860606800280DD0FFF77AFC0646E44F45
:102B500004E0FFF775FC801BB8427DD8286880032D
:102B6000F7D50CE0FFF76CFC0646DD4F04E0FFF7FD
:102B700067FC801BB842F0D828688003F7D420781F
:102B8000800741D5E8681F270007800F3F02012812
:102B900007D0E8680007800F032809D1E868C00360
:102BA00006D42868400717D5E068012823D113E030
:102BB000E068002817D02968092291430143296061
:102BC000FFF73EFC064604E0FFF73AFC801B0228B4
:102BD000C3D828684007F7D568682169B843090257
:102BE0000843686010E02868400840002860FFF74C
:102BF00027FC064605E090E0FFF722FC801B022838
:102C0000ABD828684007F7D42078C00676D5E868A6
:102C1000B44E0007800F0BD0E06900285DD0286813
:102C2000FF21013108432860FFF70AFC074644E012
:102C30002868800502D5E06900286ED0606A69685E
:102C40003140884212D901F0D5FF0028AED1686822
:102C5000616AB043084300E0E4E068606868218C82
:102C60000002000A0906084368600FE06968B14382
:102C7000014369606868218C0002000A0906084364
:102C80006860606A01F0B6FF00288FD1606A410B6E
:102C90000120C003491C8840E968934A0906090FCE
:102CA000515CC840914908600320FFF721FC25E0F2
:102CB000FFF7C6FBC01B02288AD828688005F7D515
:102CC0006868616AB043084368606868218C0002E4
:102CD000000A09060843686010E02968FF200130F7
:102CE00081432960FFF7ACFB064604E0FFF7A8FB31
:102CF000801B022884D828688005F7D420787C4E71
:102D0000000723D560690028306910D001210843ED
:102D10003061FFF795FB074605E009E1FFF790FBFF
:102D2000C01B02287ED830698007F7D50EE0400826
:102D300040003061FFF784FB074604E0FFF780FBAB
:102D4000C01B02286ED830698007F7D4207840076E
:102D500061D5A86B0027C00005D4A86B0121090725
:102D60000843A863012763480168C90511D40168B5
:102D7000821511430160FFF763FB009005E0FFF748
:102D80005FFB0099401A64284CD85A480068C00577
:102D9000F5D5FF20A2680130824203D13169014399
:102DA000316111E001218902002A07D005231B02AD
:102DB0009A4203D132690A433261EFE732698243B2
:102DC0003261306988433061A06800280ED0FFF777
:102DD00037FB009006E0FFF733FB0099411A4048AB
:102DE00081421FD830698005F5D50DE0FFF728FB3B
:102DF000009006E0FFF724FB0099411A3848814211
:102E000010D830698005F5D4002F04D0A96B0120BB
:102E100000078143A9632078800630D53649A06930
:102E20004A1400E07DE0002816D0AB68012003437F
:102E3000AB606B6B03436B63086A10430862FFF778
:102E4000FFFA064604E0FFF7FBFA801B022868D869
:102E5000A8688007F7D512E0A86840084000A8607D
:102E6000086A90430862FFF7EBFA064604E0FFF7B2
:102E7000E7FA801B022854D8A8688007F7D4A06A14
:102E8000002853D0E9680907890F032950D001268B
:102E900036060228286805D0B0432860FFF7D0FA2C
:102EA000044640E0B0432860FFF7CAFA074604E052
:102EB000FFF7C6FAC01B022833D828688001F7D470
:102EC000216BE06AEA680843616BFD231B049A43A7
:102ED00011430843E860286830430FE000100240C7
:102EE0008813000000E00000849E00084C000020D1
:102EF0004010024000700040000001402860FFF7D1
:102F00009FFA044604E0FFF79BFA001B022808D84A
:102F100028688001F7D509E0FFF792FA001B022824
:102F200001D90320F8BD28688001F5D40020F8BD40
:102F30000120F8BD30B5014620310A78012A15D0AC
:102F400001220A7002234B700468CA23636204687A
:102F50005323636203689C6820252C439C600068AF
:102F6000FF2343624A700020087030BD022030BD4C
:102F700010B503F0FBFD10BDF8B50546044620353D
:102F8000287801281DD0012028700220687022684E
:102F9000CA205062226853205062FF200130002670
:102FA000FF2781421CD121688A6882438A60206899
:102FB00081680122120391438160FFF741FA00907A
:102FC00009E00220F8BDFFF73BFA0099411A7D2085
:102FD000C00081421BD82068C068C007F3D020E041
:102FE00020688168012252029143816020688168D3
:102FF000120191438160FFF723FA00900DE0FFF783
:103000001FFA0099411A7D20C000814205D920682D
:103010004762032068702E70F8BD2068C068800782
:10302000EDD520684762012068702E700020F8BD41
:1030300010B500680B464068C021C943014000023A
:10304000000ECC04D870E40E5C708C06A40E09044B
:10305000490F9C701970002A0AD101F007FED87040
:10306000587801F003FE5870987801F0FFFD9870D1
:10307000002010BD30B50B460168896A59600168AF
:1030800009694904490C9960006804680F482146A1
:10309000014088024D04800E18706D0E49065D7067
:1030A000490E99706102490E40242140D970002ACE
:1030B0000AD101F0DBFD1870587801F0D7FD587087
:1030C000987801F0D3FD9870002030BD7F7F7F009D
:1030D00070B5040005D0254620356878002802D058
:1030E00006E0012070BD00202870204600F042F864
:1030F000022068702168CA20486221685320486213
:10310000204601F0C6FDFF210028206803D041625F
:1031100004206870E5E78268154B1A4082602268D7
:1031200090686368A6691843236933431843906025
:103130002268E06810612068026923891B041A4331
:1031400002612068C26880239A43C2602068C26C12
:1031500092089200C264E269606902432068C36C0D
:103160001A43C2642068416201206870002070BD6B
:10317000BFFF8FFF00B597B00420009000200A9099
:10318000FF20013002906846FFF7A6FC002801D01E
:10319000FEF78AFB20200E90C0020F900EA8FFF7CA
:1031A000C5FA002801D0FEF77FFB0848016901221B
:1031B000920411430161002211460220FFF7BAF97F
:1031C0000220FFF7ADF917B000BD0000401002402B
:1031D000FEB506460446203630780B46012842D01C
:1031E000012030700220707020681D4600272035B5
:1031F0008068002A39D0400655D5187801F036FD90
:10320000287801F033FD1978987809040843597833
:10321000DA780902120411430843297809060843A1
:10322000D9690843596908430546996958680843AC
:1032300000902168CA204862216853204862FF201C
:103240005A6A0130802182424AD1226893688343BE
:1032500093602268D0680840FF388238D060FFF75A
:10326000EFF8019029E00220FEBD400600D4DF7097
:10327000187801F003FD0204587801F0FFFC000209
:103280000243987801F0FAFC0243D8780004024324
:10329000287801F0F3FC00060243D869024358691C
:1032A00002431546C1E7DF70AAE7FFF7C9F80199A5
:1032B000411A7D20C00081422AD82068C068C0071A
:1032C000F3D02068C561216800984864206881684F
:1032D000FF2201321143816020688168120130E0D1
:1032E0002068826801235B029A4382602068C2687A
:1032F0000A401D495118C160FFF7A2F801900EE085
:10330000FFF79EF80199411A7D20C000814206D93D
:103310002168FF204862032070703770FEBD20686E
:10332000C0688007ECD52068056221680098886431
:1033300020688168012252021143816020688168FF
:1033400012011143816009480268012149040A43BE
:10335000026082680A4382602168FF20486201207F
:10336000707037700020FEBD7FFDFFFF000401403C
:10337000F8B505460446203528780B46012815D0B7
:1033800001202870022068705878002A10D001F0BF
:103390006DFC987801F06AFCD8789E7800040643AA
:1033A0005878197800024903084316E00220F8BD56
:1033B000C10603D5EF2108400A305870D87801F0D3
:1033C0005DFC0604587801F059FC00020643987829
:1033D00001F054FC06431878400306432168CA20D4
:1033E0004862216853204862204601F052FC0027C1
:1033F000002811D110480640206846602068C16846
:1034000080229143C1602068806880060CD42046E9
:1034100000F08CF8002807D02168FF2048620420C3
:1034200068702F700120F8BD2168FF2048620120DC
:1034300068702F700020F8BD3FFFFF00F8B506460A
:103440000446203630780D4601280ED00120307019
:1034500002207070206800278068002A07D040068C
:103460001AD5287801F002FC17E00220F8BD4006CA
:1034700000D4EF70287801F001FC0204687801F0B4
:10348000FDFB00020243A87801F0F8FB0243E87854
:103490000004024300920BE0EF702978A878090439
:1034A00008436978EA78090212041143084300903E
:1034B0002168CA204862216853204862204601F0F2
:1034C000E8FB00281FD118490098084021680860CF
:1034D0002068816801229204914381602969E8682B
:1034E000084321688A68104388602068C168802288
:1034F0009143C1602068806880060CD4204600F0AB
:1035000015F8002807D02168FF2048620420707059
:1035100037700120F8BD2168FF20486201207070DB
:1035200037700020F8BD00007F7F7F0070B5044633
:103530000068C168A0229143C160FEF781FF7D262B
:103540000546F60006E0FEF77BFF401BB04201D9BE
:10355000032070BD2068C0688006F4D5002070BDCF
:1035600070B5040006D025464035687C002600284A
:1035700002D005E0012070BD2E74204600F032F824
:103580000220687420680168402291430160A168AC
:10359000606822690843E1681143084361690122B8
:1035A0000843A169520211400843E1690843216AB6
:1035B0000843A16A084321680860A0690421000C3F
:1035C0000840616A0843216848602168E06A086130
:1035D0002068C16992009143C161666501206874E9
:1035E000002070BD7047F8B5044600276846078084
:1035F00026464036707C012802D0707C22287ED17D
:1036000000290CD0002A0AD0002B08D0307C0128D9
:1036100075D001203074707C012802D003E00120B5
:10362000F8BD322070746765A263A387E3872163C6
:10363000A386E386A764E7640125A06A6D03A84218
:1036400007D120680168A943016020680168294307
:10365000016020680168490603D4016840221143D3
:1036600001600121FF20E268C90205308A426168D9
:1036700066D1002904D081420CD1E08E012809D105
:10368000206B21680088C860206B801C2063E08E5E
:10369000401EE086E08E002843D1A06AA84246D1B1
:1036A0002068016801221203114301603FE0206895
:1036B000C068A16B0880A06B801CA063B0E00022F2
:1036C00002212046069B01F00BFC00287DD1206BD7
:1036D00021680088C860206B801C2063E08E401E3B
:1036E000E086E08E002808D1A06AA84205D12068B3
:1036F00001680122120311430160002200E0CCE0C6
:1037000001212046069B01F0EBFB00287FD12068B9
:10371000C068A16B0880A06B801CA063E08F401E76
:10372000E087E08E0028CAD1606800287BD10022A3
:1037300001212046069B01F0D3FB002867D1B6E7A4
:10374000002904D081420BD1E08E012808D1206BE2
:10375000411C216321680078C860E08E401EE0862D
:10376000E08E002845D1A06AA84205D120680168F2
:103770000122120311430160002201212046069B11
:1037800001F0AEFB002842D12068C068A16B087030
:1037900046E0002202212046069B01F0A1FB002802
:1037A00035D1206B411C216321680078C860E08E10
:1037B000401EE086E08E00280AD1A06AA84207D108
:1037C000206802680121090300E020E00A4302604A
:1037D000002201212046069B01F082FB002816D121
:1037E0002068C268A06B411CA1630270E08F401E7C
:1037F000E087E08E0028CCD16068002813D1002239
:1038000001212046069B01F06BFB002802D003201B
:10381000F8BD08E02068C168A06B421CA26301707B
:10382000E08F401EE087A06AA8420FD1002201214C
:103830002046069B01F054FB002802D0606D022157
:103840000EE02068C068694608800888012280214F
:103850002046069B01F044FB002804D0606D202127
:1038600008436065D3E701207074A06AA84211D1B3
:1038700020688168C943C9060CD4616D02221143D6
:1038800061650168A94301602068016829430160FE
:103890003774C4E637740020BAE70220B8E702465E
:1038A0002032137D012B07D00123137500680165B9
:1038B00053750020107570470220704710B5002125
:1038C0000F4800F0DBF90F4CA268214653005B184B
:1038D000521CA2601880A06802280FD34A8808886A
:1038E0000021C943081A401C101881B2064800681C
:1038F000FCF7FEFB60606068C000606010BD000007
:103900009C020020240000204C000020F8B5064650
:1039100004462036307D0D4601283DD0012030750B
:1039200002207075002A39D0042A46D0082A57D0C0
:103930002B68297B20689E468C466B68016A0122B1
:10394000120391430162C169026A03273F02B9432E
:103950001B020B430F2109038B4361460907090C26
:10396000194305235B039A4373460A273B401B0315
:103970001343C16103622068C1690322920291432B
:10398000C1612068C169AA6812021143C1610120A6
:10399000707500203075F8BD0220F8BDEB6806CDCB
:1039A000083D206803F072F8206882690C218A4380
:1039B000826120688169AA680FE0EB6806CD083D46
:1039C000206803F091F820688269032189028A4304
:1039D000826120688169AA68120211438161D6E779
:1039E00088CD287921688446086AFF2201329043F5
:1039F0000862C8690A6A800880003843F027B84323
:103A000067463F073F0E07430520400282430A20D6
:103A1000034018021043CF6108622068C1690C227C
:103A20009143C1612068C1692A68AEE710B50221DF
:103A300004462034617501680A6A064B1A4203D1B4
:103A40000A68520852000A6000F020F800206075F1
:103A5000207510BD1111000070B5040005D0254679
:103A60002035687D002802D006E0012070BD0020CE
:103A70002875204600F00CF802206875211D20688A
:103A800002F0C8FF01206875002070BD704700007B
:103A900010B50748416B0422114341630022042101
:103AA0001420FEF747FD1420FEF73AFD10BD00007C
:103AB0000010024010B502680446002906D004290F
:103AC00007D0082914D00C2907D114E0D0680223AC
:103AD00001E0D06804231843D0600122206802F07E
:103AE000C9FF20680168012211430160002010BD58
:103AF000D0680823EFE7D0681023ECE710B5026820
:103B00000446002906D0042907D0082918D00C291A
:103B100007D118E0D068022301E0D068042398435D
:103B2000D0600022206802F0A5FF2068016A074AE1
:103B3000114203D10168490849000160002010BD0D
:103B4000D0680823EBE7D0681023E8E711110000E4
:103B500070B50446006801690025C943890700293A
:103B600015DBC168C943890711D4E91E0161012031
:103B70002075206880698007204602D0FFF79EFEEE
:103B800004E000F078F8204600F076F8257520680B
:103B90000169C943490717D4C168C943490713D408
:103BA0000421C943016102202075206880698005D5
:103BB000800F204602D0FFF781FE04E000F05BF8A2
:103BC000204600F059F8257520680169C9430907A6
:103BD00016D4C168C943090712D40821C943016139
:103BE000042020752068C0698007204602D0FFF7B6
:103BF00065FE04E000F03FF8204600F03DF8257532
:103C000020680169C943C90617D4C168C943C906F8
:103C100013D41021C9430161082020752068C069B0
:103C20008005800F204602D0FFF748FE04E000F038
:103C300022F8204600F020F8257520680169C94364
:103C4000C90708D1C168C943C90704D1891E0161E8
:103C5000204600F012F820680169C943490609D4DA
:103C6000C168C943490605D44021C94301612046C2
:103C700000F027F870BD70477047704710B50346D5
:103C800020331C7D0022012C0AD001241C75002940
:103C900008D0042909D008290AD00C290DD10AE03E
:103CA000022010BD0068426B07E00068826B04E0F0
:103CB0000068C26B01E00068026C002018751046B5
:103CC00010BD7047014660310A7A012A0DD00122E9
:103CD0000A7224224A720068026802231A430260B0
:103CE00020204872002008727047022070470000B0
:103CF000FEB5054604466035287A0026944601281C
:103D000011D001232B7224206872206802689A4324
:103D100002602768B8680322120590430843B86020
:103D2000002902D015E00220FEBD604600910190FE
:103D300021686A46928848681027B8431043486053
:103D4000206841686A4609029279090A12061143FD
:103D500041602068016819430160FEF771FB094961
:103D600000910346012100228905204603F0C9FA8B
:103D7000002801D0032601E020206872002028726C
:103D80003046FEBDFFFFFF0170477047F8B502687F
:103D90000446D06911680607360F07D1830605D59A
:103DA0008B0603D5204603F021F9F8BD9568202342
:103DB000002E65D0EE07F60FFF2721370F4037435F
:103DC0005ED0C70706D0CF0504D501271762E26E83
:103DD0003A43E266820708D5EA0706D0276802223E
:103DE0003A62E26E04273A43E266420708D5EA07E0
:103DF00006D0256804222A62E26E02252A43E26682
:103E0000020709D50A461A40324305D02368082222
:103E10001A62E36E1343E366E26E002AC5D08006A1
:103E200004D5880602D5204603F0E0F8E06E0007CE
:103E300003D42068806840061CD5204603F0BEF8F5
:103E400020688168490611D5826840218A438260D2
:103E5000606E00280AD01D498163606EFDF77EFF09
:103E60000028A2D0606E816B8847F8BD2046FFF71E
:103E70008CFFF8BD2046FFF788FF0020E066F8BD04
:103E80002646C7026036002F0ADA6D0208D50120E7
:103E9000000510627372B3722046FFF775FFF8BD1C
:103EA000050605D50D0603D5204603F0F7F9F8BD44
:103EB0004006FCD54806FAD52046146840218C43BC
:103EC0001460737200F00AFAF8BD0000256F000854
:103ED00070B5040005D025466035687A002802D008
:103EE00006E0012070BD00202872204600F026F870
:103EF0002420687220680168490849000160606AEE
:103F0000002802D0204602F077FF204603F0AEF8EA
:103F10000128E7D0206841680922D202914341601C
:103F2000206881682A22914381602068016801220B
:103F300011430160204602F0C5FF70BDF0B5064692
:103F400000684049404C012504278BB0884244D189
:103F5000E06A2843E062E06A28400990E06A28436A
:103F6000E062E06A28400990A06BA9040843A063BE
:103F700024216846FCF758F9E0140490009768463D
:103F8000FEF7D4FB206B28432063206B2840099068
:103F900005F084FE2E4C2D4820601020A0600020EB
:103FA000E0606061A0618021E06121612062052004
:103FB00060602046FEF75EF83466012211460B2051
:103FC000A662FEF7B7FA0B20FEF7AAFA0122114605
:103FD0001D20FEF7AFFA1D202FE01E4988422ED18A
:103FE00014216846FCF720F9E06A2843E062E06AA1
:103FF000C007C00F0590606B01218903084360630F
:104000004811009002200190002002900320052416
:1040100024070390694604972046FEF745F90120DE
:1040200080020090694604972046FEF73DF9012280
:1040300002211B20FEF77EFA1B20FEF771FA0BB05F
:10404000F0BD000000480040001002408000024027
:10405000D807002000380140F0B5034660339C7A51
:10406000202C44D100290BD0002A09D001258468D6
:104070002D03AC4206D10669002E03D1CE0701D034
:104080000120F0BD1E7A012E31D001261E7241653D
:10409000014640310A834A83FF27AC4204D10269BA
:1040A000002A12D1134A0EE07F22002C08D00125ED
:1040B0002D07AC420AD10469002C04D03F2202E053
:1040C0000469002C01D08A8300E08F830021C1663F
:1040D00022229A72197201688A6832438A600068E3
:1040E0000168FF222132114301600020F0BD02204F
:1040F000F0BD0000FF010000F8B505460068314939
:10410000314C88420ED12169002904D0E86E002884
:1041100001D1601C88472C490122491C2846FFF721
:104120009BFFF8BD294900258842FAD1284E202757
:10413000254927480122891C6038FFF78DFF002898
:1041400002D0B7723572F3E71F481F49801C007810
:10415000C91C0870217A002909D01D4A2179103222
:104160005054491CC9B22171FF2900D32572194945
:10417000097801290DD0E179002915D0164A618905
:104180005054491C88B2154960818842C9D3E571F1
:10419000F8BD134A012111702178FE29F8D8114A7F
:1041A0005054491C2170F8BD61790129FBD10E4A98
:1041B000A1795054491CC8B2A071FF28F3D1657190
:1041C000F8BD000000480040840000200038014095
:1041D000E8080020A5000020F80A002026020000C0
:1041E000610000201E0D0020F8090020F8B50546EA
:1041F00004466035687A20283BD100290BD0002A7C
:1042000009D00123A0681B03984206D12069002829
:1042100003D1C80701D00120F8BD287A012828D091
:104220000120287220464030E1640282428200264A
:10423000E66621206872216E0F48C862216E0F4821
:104240000863216E0E484863206E13468663276814
:10425000E16C3A462832206EFDF790FF216840203D
:1042600008622E72206881688022114381600020DC
:10427000F8BD0220F8BD0000836F0008B36F00088E
:10428000396F000830B5034660335C7A202C23D1A7
:1042900000290BD0002A09D0012584682D03AC42E7
:1042A00006D10469002C03D1CC0701D0012030BD18
:1042B0001C7A012C10D0C164014640310A824A8226
:1042C0000021C16621225A72197200680168802299
:1042D00011430160002030BD022030BD0248C0689B
:1042E000002800D00047704784000020704700007D
:1042F00010B51248017800291ED101220270114820
:104300000F49016000210164C161D30781614360ED
:1043100082638160C160016207234162C3630261FD
:10432000C1620422426101630748416B4215114397
:1043300041630448FDF716FC10BD0000800000201A
:1043400000240140780700200010024001460020B0
:104350000A0A00D00820084A114201D00422104362
:10436000064A114201D002221043054A114201D0EF
:104370000121084370470000F0F00000CCCC0000A1
:10438000AAAA000038B50B231B07C518114B0FD084
:104390001C152D1B18D02D1B19D0A542DD6A05D187
:1043A00008242543DD62DB6A234007E08024F8E728
:1043B000DC6A01252C43DC62DB6A2B400093116030
:1043C0001146FDF771FF38BDDD6A0224E9E7DD6AB9
:1043D0000424E6E70010024010B5FFF7B7FF8100A4
:1043E00002484058002800D0804710BDEC02002051
:1043F00070B51C4615460E460846FFF7A7FF0A494A
:10440000002C0DD080000C50304600F0C1FA04465C
:1044100000222946FEF78EF82046FEF781F870BD8F
:10442000002280000A5070BDEC02002010B5D2B20C
:10443000FEF700F810BD000010B5094C60780028A8
:104440000CD1FFF755FF07480068804700F0DAF904
:1044500000F08EF802F056FC0120607010BD0000E4
:10446000800000201C9E000870B5410EC0017D2216
:104470000023FBF753FE054600F072F8044600E007
:1044800000BF00F06DF8001BA842F9D370BD00001A
:1044900070B505460C4600222048FEF7EBFD0022D1
:1044A00029461E486668FEF7C3FD002221461B48C8
:1044B000FEF7E0FD6068B042F1D1E878184A0146A5
:1044C0005043C01C8308880726D0164968783D22CF
:1044D0000646504302463C3A7000801EC1408807A1
:1044E000D10F8918800F4910081AC018A978401EEA
:1044F00008180D493C2248436178E1235143227852
:104500001B015A438918A27810180818074A6168D5
:104510008002511A401870BD0549D7E72C030020CE
:10452000B5050000A0AA990080510100FF0300001A
:104530005055440003207047014800687047000050
:104540007803002000B587B0694605A8FFF7A0FFF3
:104550000249096807B0401A00BD00007803002036
:1045600000B587B0694605A8FFF792FF07B000BD08
:1045700010B5084C207800280AD100F04BF8FF2134
:1045800001310548FEF7F8FC00F074F801202070B6
:1045900010BD0000540000202C03002010B50C4C6E
:1045A0000021042000F0E0F921688868C0040ED5DD
:1045B000C868C0050BD5C86880221040FF38823813
:1045C000C8600449900248612046FEF7D1FC10BD46
:1045D0002C0300200004014070B50446FFF7B2FF31
:1045E000211A0B4D0220285EC01C814201D90021F6
:1045F00000E00121042000F0B7F900F0A1F9012842
:1046000002D10220285E241A204600F03FF870BD37
:104610005400002010B51449144886B0002412C07C
:104620001F210160846004611149446141600838C0
:10463000FEF74EFD6946CC750120487588750875F2
:10464000002205A90948FEF793FE00940194049402
:104650000022694605480394FEF7F0FE0348FEF782
:1046600069FC06B010BD0000002800402C030020AB
:10467000FF03000010B5044C2046211D1830FFF741
:1046800007FF206010BD000078030020F0B587B060
:10469000044614223F4901A8FBF7ADFD3D485038C0
:1046A000406E009000F07EF83B4802993B4A401A69
:1046B000A105890D081887B2A10A6846807853427F
:1046C00002E08918401C80B29942FAD26A461579F4
:1046D000E122120102E0891A6D1CADB29142FAD2B8
:1046E0006A46547902E0641CA4B23C393C29FAD2EF
:1046F000927951188EB20121890203E07A1A761C50
:1047000097B2B6B28F42F9D203E03C3E641CB6B217
:10471000A4B23C2EF9D203E03C3C6D1CA4B2ADB275
:104720003C2CF9D203E0183D401CADB280B2182DEC
:10473000F9D26946C978890769464A7827D0184965
:10474000491E515C814202D2FBF7D2FC0846124955
:10475000CA1B10492C394A60052252068A618E70A4
:104760004C700A460D70203210706846C079C870CF
:104770000020C861FF2248610132C8604A620861B6
:10478000024608462438FEF723FD07B0F0BD044971
:104790000C31D5E77C030020FF03000080AEFEFF54
:1047A000A59E000810B506480168C8688022104020
:1047B000FF388238C86051000148FEF7DDFB10BDAC
:1047C0002C03002010B57D2102F005FE4906C0092A
:1047D000084310BD10B5410EC0017D220023FBF738
:1047E0009DFC10BD01B582B00020C04300900123A4
:1047F00001AA02A90248FEF7F6FE684680880EBDAF
:104800009403002010B51C481A4901601C4A1B4B38
:104810000021126803E05208491C072901D29A427C
:10482000F9D84A078B07D20FDB0F52011B011A433D
:10483000C90700D008210A43C261002181600161DB
:104840004161FF22C1600532816242600122016242
:104850005202826141620B48416B821411434163F1
:104860000548FEF77DFE002801D0FDF71DF800F099
:104870000BF810BD00300140940300208096980092
:104880004C0000200010024030B585B0142168466D
:10489000FBF7CAFC02200190029003200390002045
:1048A0000524240704906A4620212046FFF76AFD6C
:1048B0006A4640212046FFF765FD6A468021204672
:1048C000FFF760FD01210191CD0302916A4629465F
:1048D0002046FFF757FD012229462046FFF7A6FD97
:1048E00005B030BD00BFFDE710B50448FDF7E0FDA1
:1048F000002801D0FCF7D8FF10BD00008C0200207A
:1049000000B587B014216846FBF78EFC0B48C26ADD
:1049100001210A43C262C06A01910840059000204B
:104920000290022019210390090205206A46009195
:104930000007FFF727FD07B000BD00000010024090
:10494000EFF3108172B607480268002A01D00020F8
:1049500005E04068002801D0012000E0022081F33A
:1049600010887047D800002010B5EFF3108272B69F
:10497000064B00291C6803D0012903D1044300E041
:1049800084431C6082F3108810BD0000D800002012
:10499000FF220132811A90420CD009DC08280DD088
:1049A00008DC012808D0022806D0042802D105E03E
:1049B0000F2212020720704705207047062070471B
:1049C000704700008307FF22DB0E9A408907090E1B
:1049D000994000280BDA0007000F083883080848C0
:1049E0009B001818C36993430B43C3617047830846
:1049F00004489B001B1818689043084318607047D0
:104A000000ED00E000E400E0BFF34F8F04490348ED
:104A1000C860BFF34F8F00BFFDE700000400FA0538
:104A200000ED00E010B5164CE07B401CC0B2E07316
:104A300005280BD3134802F035F90020E073124922
:104A400020720870E0822073E07210BD0F48017878
:104A50000F48007801430F4800680ED00E494118F6
:104A6000084802F0D5F8074802F0E4F8A069401EB3
:104A7000A0610120E070207210BD0849EFE700003E
:104A8000580000203C07002084000020A3000020E4
:104A9000A4000020CC00002030750000102700008A
:104AA00010B50549054802F0B3F8044802F0C2F811
:104AB00003490120887110BD5046000064070020A2
:104AC0005800002010B5064802F0ECF80548002117
:104AD000817241720121C1700221017310BD000079
:104AE000500700205800002010B50648016806480D
:104AF00002F08EF8044802F09DF804490120C870C5
:104B000010BD0000C400002028070020580000202D
:104B10007047000070B528A002F006F90028FAD10D
:104B200026A002F001F90028FAD1274D28780028A4
:104B300002D00024254E10E025A002F0F5F8002850
:104B4000FAD112E0315D24A002F0EEF80028F9D18C
:104B50000620FDF73AFB641CE4B228788442F1D3C6
:104B600015A002F0E1F80028FAD11DA002F0DCF84F
:104B70000028FAD11D4D2878002802D000241C4EB0
:104B800010E013A002F0D0F80028FAD170BD315D1A
:104B900011A002F0C9F80028F9D10620FDF715FB95
:104BA000641CE4B228788442F1D303A002F0BCF87C
:104BB0000028FAD170BD00000D0A0000434D4420CA
:104BC00020202020203D200068000020EC0600204E
:104BD0004E554C4C0D0A0000253032782000000064
:104BE00052455455524E2020203D20008A0000207E
:104BF000F809002070B517490023CA681206120F81
:104C000018D18A6B154CD500134A02D51268224080
:104C100009E08E6B01252D072E438E6312688E6B83
:104C20002240AE438E63A24204D10321890388420D
:104C300000D101230A48016849084900194301606D
:104C40000068C007C00F984201D0012070BD00204D
:104C500070BD00000010024000700040001800000D
:104C60000020024010B504F0F3FF10BD01090A2234
:104C700000075143000F4018C0B27047002102E006
:104C80000A38C0B2491C0A28FAD20907090E08439B
:104C9000704770B504460068C168490613D4002106
:104CA000C943C160FDF7CCFB7D260546F60006E052
:104CB000FDF7C6FB401BB04201D9032070BD206840
:104CC000C0684006F4D5002070BD10B5FFF766FC43
:104CD00010BD000070B5092000F029FE0546062031
:104CE00000F025FE0404072000F021FE000204432A
:104CF000082000F01CFE0443200A0102184A611A31
:104D0000514380315043090A46180021092001F01F
:104D100071FC3B2000F00BFE4024204301463B2069
:104D200001F068FC3B2000F002FE8006FAD40D483A
:104D300000F036FF3B2000F0FAFD204301463B2007
:104D400001F058FC3B2000F0F2FD8006FAD4294621
:104D5000092001F04FFC304600F022FF70BD00003A
:104D6000093D000000A1BC33F8B501260024F6027D
:104D7000052705463F0731463846FDF757FBFF201C
:104D80002D30FDF722FA641C022CF4DB2868012484
:104D900083788446002B46D0002006460090414888
:104DA000414900780978084328D04048427B9A431B
:104DB0004273002021468140114201D0761CF6B298
:104DC0000B4202D0411CC9B20091401CC0B208285D
:104DD000F0D3364FF87A00280CD0604600780028CF
:104DE00010D03148009902783148931B01F09CFFA4
:104DF0000028F6D1787B00280AD014E02B49002047
:104E00004873E6E72BA001F08FFF0028FAD1F1E705
:104E1000314801F047FF0020F87338722F49F882BB
:104E200008703873F8721F4802781F4811460078DE
:104E300001432968497811D0431E26469E403142DD
:104E40000ED0297904290BD32B68091FDB788B42FC
:104E500006D1214E00230421503E09E00129F0D063
:104E6000F8BD2F687F5C491CF7545B1CC9B2DBB2EC
:104E70002F798F42F5D8FBB20C491B1F0B74531EC0
:104E80000342EDD1002A08D0002806D0082804D813
:104E90002246401E82408A7300E08C73CC700C71F5
:104EA000F8BD0000A3000020A4000020580000204E
:104EB000F8A1000852656365697665642041434B3B
:104EC0002047726F75702049442C207375622D69DC
:104ED000643A20300D0A00003C07002084000020C6
:104EE000F8B51D4616460F460446FDF7A9FA3146A9
:104EF00026464036009000291ED043E0681C1BD097
:104F0000002D05D0FDF79CFA0099401AA84213D94C
:104F100020684168E0229143416020680268402196
:104F20008A43026023E021680A6882430A6021689C
:104F30000A6802430A601FE0206881683846884397
:104F4000DCD124E0681C1DD0002D06D0FDF778FAD6
:104F500001460098081AA84214D920684268E02146
:104F60008A43426020680168402291430160012029
:104F7000A16A40038142D6D00120707400203074B1
:104F80000320F8BD2068816838468843DAD00020C5
:104F9000F8BD7047014948607047000000000020DC
:104FA00001207047014980207047000040DD4A1F02
:104FB00010B50348406840688047801C10BD000061
:104FC000000000200148007970470000E80100203F
:104FD000F3B5024600206D498BB0002A0BD0012AA0
:104FE0007ED10024486C2546072854D0082855D087
:104FF000092858D155E06548C069FBF7CFFB074643
:1050000000910C98FBF7CAFB06900E46302000F08A
:105010008EFC4007800F02D000245D4D01E000248B
:105020002546272000F083FC58494007400F098C93
:10503000401C4018FBF7B2FB544A20320992927888
:10504000012A21D00022524BFBF7ECF922462B46D5
:10505000FBF7E8F93346069AFBF7E4F9099A127967
:10506000012A14D000221346FBF7DCF90322FBF7D8
:105070006BFB3A46009BFBF7EFFA0022454BFBF730
:1050800083FA04F0A9FA7DE000221346DCE700224F
:1050900001239B07E8E700243F4D04E000243F4D37
:1050A00001E03F4D00248F6C0120B840FBF762FB0C
:1050B00002460B4620462946FBF7CEFA02460B462F
:1050C00000203349FBF7C8FA304E044640360D46FF
:1050D000F089FBF763FB0022324BFBF7A3F900E0FA
:1050E00052E022462B46FBF74FFA07910890707B5F
:1050F000001DFBF753FB05910690307B002800D084
:105100000220381A8000FBF749FB04900C980391A9
:10511000C000B900401AB17C09014018317C002957
:1051200000D01421401A1C30FBF738FB039B049A73
:10513000FBF792FA03F09AFD059B069AFBF724FA17
:10514000002207460E461346FBF754FB02D23846B0
:10515000314601E0002001460022134BFBF762F9C3
:1051600022462B46FBF710FA079B089AFBF75AF9E1
:105170000022084BFBF708FA0C4A0D4BFBF752F9DB
:1051800003F086FEFBF718FB0DB0F0BDE801002030
:105190000000F03F00408F408084FE4080840E413C
:1051A00080841E4100001140000020402B8716D94A
:1051B000CEF7EF3F00207047F8B51E4D1E4928601E
:1051C0001E4801F0BDFC1D481B49143001F0B8FC1D
:1051D0001A481949283001F0B3FC686801680120B9
:1051E000884700F0F7FBFFF775FD002000F050FD49
:1051F00068688168284608308847114E002460009E
:105200002718F05D00F00CFDB8198178407801F0A6
:10521000F1F9641CE4B2102CF1D3002000F000FD81
:105220000649002068390871686840688047801C1A
:10523000F8BD00000000002029580008500200209E
:105240003C9D000810B586B014216846FAF7ECFFC3
:105250000E4801900220010302906A460C48FFF7B5
:1052600091F80C4C01216A4689022046FFF78AF822
:1052700001216A46C9022046FFF784F8FF216A46E9
:1052800001312046FFF77EF806B010BD0000111076
:10529000000800500004005010B586B01421684684
:1052A000FAF7C2FF1148FFF775FE1148019002207E
:1052B00002900320012103906A4649030D48FFF73D
:1052C00061F80D4C01216A4689022046FFF75AF821
:1052D00001216A46C9022046FFF754F8FF216A46B9
:1052E00001312046FFF74EF806B010BD3400002013
:1052F00000001110000800500004005070B5044672
:1053000001210368002249030C48FFF771F80C4D96
:1053100001210022890228466368FFF769F801210C
:105320000022C9022846A368FFF762F8FF21002285
:1053300001312846E368FFF75BF870BD00080050B4
:1053400000040050FFB581B01D4617460E460124EB
:10535000019800F065FC304600F022FC052000F0CA
:1053600097FC0120FCF759F801F0D8FB064606E04F
:10537000019800F00DFBB84201DD002404E0304646
:1053800001F0D2FBA842F3D300F056FF204605B04F
:10539000F0BD0000F8B5002568460570934C2079F3
:1053A000012809D0022857D12046683001F07AFC44
:1053B000607901287ED106E16079002818D00128A3
:1053C0004AD14021122001F015F9122000F0AFFA65
:1053D000694608700878854E8006403600286ADAEB
:1053E0002021122001F006F9B07D002876D083E05C
:1053F0007E4E20363079012835D13F2000F097FAD3
:1054000069460870087880072DD40B213E2001F0F2
:10541000F1F810213F2001F0EDF830465C3001F04A
:1054200041FCB079002818D00D2000F080FA40210E
:1054300001430D2001F0DEF83046703001F0FAFB38
:105440006B480068002803D00069002800D080471E
:1054500035747574A5876587F8BD6448903001F090
:1054600021FC2571ECE7618F624F00290AD1A08FE2
:10547000002807D1B078002831D0322000F057FA48
:105480006087618FA08F091AC9B2C01900F078FA3D
:10549000608FA08755487C3001F004FCB07900286B
:1054A00023D00D2000F043FA402101430D2001F0EC
:1054B000A1F801E08BE02CE04C48903001F0BAFB01
:1054C0004B4800680028C3D08768002FC0D0122244
:1054D000B256618F00234748B847B9E70BE043480D
:1054E00001213A3000F04CFACBE74048257190306A
:1054F00001F0D8FBE4E725713C487C3001F0D2FB99
:105500003B4800680028A7D000690028A4D0804745
:10551000F8BD192000F00BFA40B2344F801C801007
:10552000603738701A2000F002FA00217956324AAA
:1055300000290BDAA368934203D9091800119D389A
:1055400002E009180011A438081809E0A168914286
:1055500003D9011108189D3802E001110818A43878
:105560007084132000F0E3F93871102000F0DFF9A7
:1055700001460D2001F03EF839791E4800F000FA8E
:10558000B07D002800D1257118487C3001F08AFBDD
:10559000174800680028BBD08468002CB8D00023CE
:1055A0002222FB56B25E39791248A047134C20786C
:1055B000002806D12221715E11A001F0B5FB002860
:1055C000F8D12570F8BD0821122001F013F8084821
:1055D000257100680028F5D000680028F2D08047C7
:1055E0000AA001F0A1FB0028FAD1F8BDE8010020D3
:1055F00000000020E800002040DD4A1F5800002085
:10560000527373693D2025640D0A00007478446F5D
:105610006E650D0A0000000070B5354C25462179F5
:10562000E61F6879F93E2035012911D002292AD1D7
:10563000002828D1618FA08F33460A1AE97FC0184D
:105640008A424FDD00F0FDFFA08FE97F401847E060
:10565000002819D0012816D125487C3001F022FB02
:105660008021122000F0C6FF002020712148006830
:10567000002808D0C068002805D080471EA001F08F
:1056800053FB0028FAD170BD1948903001F00AFB95
:10569000608F002809D1A08F002806D1A8780028A3
:1056A00013D0322000F043F96087608FA28F811AF7
:1056B000A87F81420FDB401EC1B2901900F060F953
:1056C000A08FA97F4018401E0AE0094801213A3006
:1056D00000F056F9E9E7C9B2901900F051F904E079
:1056E000A08770BDD1B200F0ACFF608FF8E700007A
:1056F000E801002000000020727854696D654F7544
:10570000740D0A0070B5294D294C294608462A799E
:1057100040304979C07C012A04D0022A01D10029F5
:1057200002D170BD002916D00129FAD10128F8D183
:105730000221122000F05EFF20680028F1D04069AD
:105740000028EED01C2000F0F2F82168800649699C
:10575000800E884770BD154C012620342674607C6D
:105760000028F7D12046703001F09CFA66741120B1
:1057700000F0DDF840084042A0741B2000F0D7F88C
:1057800006021C2000F0D3F80643300A0102094A41
:10579000711A514380315043090A401868630C2044
:1057A00000F0C5F84009207670BD0000E801002037
:1057B00000000020093D000010B512484079002883
:1057C0001FD001281DD1122000F0B1F80E4CC007E7
:1057D0000BD00521122000F00DFF2068002810D00A
:1057E000816900290DD001200AE00421122000F077
:1057F00001FF2068002804D08169002901D0002021
:10580000884710BDE80100200000002005484079CD
:10581000002806D103482030017C002901D1012154
:1058200001747047E8010020F8B52E4D2879012851
:105830002BD0022828D100F0CDF8FFF74BFA00203A
:1058400000F026FA284E002460002718F05D00F0D2
:10585000E7F9B8198178407800F0CCFE641CE4B216
:10586000102CF1D3002000F0DBF91E484030007FFF
:1058700000F03CFA002028711C480068002803D082
:105880004068002800D08047F8BD6879002816D10C
:10589000144E0024203634747474AC876C870B214A
:1058A0003E2000F0A7FE10213F2000F0A3FEB079BB
:1058B00001280AD030462C71703001F0F3F90B4802
:1058C00000680028E0D0C068DBE70D2000F02FF86A
:1058D000402101430D2000F08DFE0248903001F080
:1058E000A9F9ECE7E80100203C9D00080000002039
:1058F00070B50025012000F093F9FF21112000F080
:1059000079FE052000F0C4F900240120FBF785FD95
:105910002C2000F00CF8C007C00FA040641C054309
:10592000E4B2202CF1D300F087FC284670BD08B506
:105930000122694600F003F86846007808BDF8B512
:105940000446012715460E46FF030520002239466E
:105950000007FEF76BFD6006400EFEF743FF0024D4
:1059600005E00020FEF73EFF3055641CE4B2AC4277
:10597000F7D30520012239460007FEF757FDF8BD91
:105980000A4610B501460020FFF7D9FF10BD000000
:1059900010B5002804D0012808D00020C04310BD55
:1059A0001120FFF7C4FF4008404210BD07480849D6
:1059B0008068884204D91B20FFF7B9FF9D3810BDCD
:1059C0001B20FFF7B4FFA43810BD0000E801002041
:1059D00040DD4A1F30B585B014216846FAF724FC33
:1059E0000120019003200E4D0024039002946A468A
:1059F00001212846FEF7C6FC002201212846FEF7B9
:105A000015FD0120FBF709FD6A4601212846019496
:105A1000FEF7B8FC0620FBF700FD05B030BD000026
:105A20000004005073B5394C064661790020002906
:105A300002D0012966D128E00020A0876846334DB6
:105A4000017961872035A878002809D0322000F03C
:105A5000D1FD68460279501E3F2806D8EA770AE051
:105A6000012101A800F0EDFDF3E73146284803F0DD
:105A70006FFC2020E877E97F304600F0E2FDA08F40
:105A8000E97F4018A087A06A3CE02048BE2540304E
:105A9000407D012821D03320FFF749FF2840411CD9
:105AA000332000F0A7FD1D213B2000F0A3FD684638
:105AB0000179164860300171222000F09BFD002121
:105AC0000E2000F097FD00210D2000F093FD012035
:105AD000FFF72DFF40070AD00EE03320FFF727FF26
